{
  "address": "0x7B827aA42d29f7322F3BA67DcDbb75394636E539",
  "abi": [
    {
      "inputs": [],
      "stateMutability": "nonpayable",
      "type": "constructor"
    },
    {
      "inputs": [
        {
          "internalType": "string",
          "name": "_tokenA",
          "type": "string"
        },
        {
          "internalType": "string",
          "name": "_tokenB",
          "type": "string"
        },
        {
          "internalType": "string",
          "name": "_tokenA_Address",
          "type": "string"
        },
        {
          "internalType": "string",
          "name": "_tokenB_Address",
          "type": "string"
        },
        {
          "internalType": "string",
          "name": "_poolAddress",
          "type": "string"
        },
        {
          "internalType": "string",
          "name": "_network",
          "type": "string"
        },
        {
          "internalType": "string",
          "name": "_transactionHash",
          "type": "string"
        }
      ],
      "name": "addLiquidity",
      "outputs": [],
      "stateMutability": "nonpayable",
      "type": "function"
    },
    {
      "inputs": [],
      "name": "admin",
      "outputs": [
        {
          "internalType": "address",
          "name": "",
          "type": "address"
        }
      ],
      "stateMutability": "view",
      "type": "function"
    },
    {
      "inputs": [
        {
          "internalType": "address",
          "name": "_address",
          "type": "address"
        }
      ],
      "name": "getAllLiquidity",
      "outputs": [
        {
          "components": [
            {
              "internalType": "uint256",
              "name": "id",
              "type": "uint256"
            },
            {
              "internalType": "address",
              "name": "owner",
              "type": "address"
            },
            {
              "internalType": "string",
              "name": "tokenA",
              "type": "string"
            },
            {
              "internalType": "string",
              "name": "tokenB",
              "type": "string"
            },
            {
              "internalType": "string",
              "name": "tokenA_Address",
              "type": "string"
            },
            {
              "internalType": "string",
              "name": "tokenB_Address",
              "type": "string"
            },
            {
              "internalType": "string",
              "name": "poolAddress",
              "type": "string"
            },
            {
              "internalType": "string",
              "name": "network",
              "type": "string"
            },
            {
              "internalType": "string",
              "name": "transactionHash",
              "type": "string"
            },
            {
              "internalType": "uint256",
              "name": "timeCreated",
              "type": "uint256"
            }
          ],
          "internalType": "struct Liquidity.LiquidityInfo[]",
          "name": "",
          "type": "tuple[]"
        }
      ],
      "stateMutability": "view",
      "type": "function"
    },
    {
      "inputs": [
        {
          "internalType": "address",
          "name": "",
          "type": "address"
        },
        {
          "internalType": "uint256",
          "name": "",
          "type": "uint256"
        }
      ],
      "name": "liquidities",
      "outputs": [
        {
          "internalType": "uint256",
          "name": "id",
          "type": "uint256"
        },
        {
          "internalType": "address",
          "name": "owner",
          "type": "address"
        },
        {
          "internalType": "string",
          "name": "tokenA",
          "type": "string"
        },
        {
          "internalType": "string",
          "name": "tokenB",
          "type": "string"
        },
        {
          "internalType": "string",
          "name": "tokenA_Address",
          "type": "string"
        },
        {
          "internalType": "string",
          "name": "tokenB_Address",
          "type": "string"
        },
        {
          "internalType": "string",
          "name": "poolAddress",
          "type": "string"
        },
        {
          "internalType": "string",
          "name": "network",
          "type": "string"
        },
        {
          "internalType": "string",
          "name": "transactionHash",
          "type": "string"
        },
        {
          "internalType": "uint256",
          "name": "timeCreated",
          "type": "uint256"
        }
      ],
      "stateMutability": "view",
      "type": "function"
    },
    {
      "inputs": [],
      "name": "liquidityId",
      "outputs": [
        {
          "internalType": "uint256",
          "name": "",
          "type": "uint256"
        }
      ],
      "stateMutability": "view",
      "type": "function"
    },
    {
      "inputs": [],
      "name": "transferEther",
      "outputs": [],
      "stateMutability": "payable",
      "type": "function"
    }
  ],
  "transactionHash": "0x3853f74865fe53cb856d2b4ed55c302acefacda097106d1559138a5340bbaa47",
  "args": [],
  "numDeployments": 1,
  "solcInputHash": "5395b5384cd233b6d7510077c04d6ca3",
  "bytecode": "0x608060405234801561001057600080fd5b50600080546001600160a01b0319163317905561126b806100326000396000f3fe6080604052600436106100555760003560e01c8063043b536b1461005a5780635f6285db1461007c57806392a5f2f0146100a5578063c9b25f0f146100d2578063d52559d0146100da578063f851a44014610110575b600080fd5b34801561006657600080fd5b5061007a610075366004610d03565b610148565b005b34801561008857600080fd5b5061009260025481565b6040519081526020015b60405180910390f35b3480156100b157600080fd5b506100c56100c0366004610e3a565b6102a4565b60405161009c9190610ea2565b61007a610742565b3480156100e657600080fd5b506100fa6100f5366004610fde565b610830565b60405161009c9a99989796959493929190611008565b34801561011c57600080fd5b50600054610130906001600160a01b031681565b6040516001600160a01b03909116815260200161009c565b60028054906000610158836110c5565b9091555050600280543360008181526001602081815260408084208151610140810183528781528084019687529182018f8152606083018f9052608083018e905260a083018d905260c083018c905260e083018b905261010083018a90524261012084015281548086018355918652929094208151600a90950201938455935191830180546001600160a01b0319166001600160a01b03909316929092179091555192939192909182019061020d9082611175565b50606082015160038201906102229082611175565b50608082015160048201906102379082611175565b5060a0820151600582019061024c9082611175565b5060c082015160068201906102619082611175565b5060e082015160078201906102769082611175565b50610100820151600882019061028c9082611175565b50610120820151816009015550505050505050505050565b6001600160a01b0381166000908152600160209081526040808320805482518185028101850190935280835260609492939192909184015b828210156107375760008481526020908190206040805161014081018252600a86029092018054835260018101546001600160a01b03169383019390935260028301805492939291840191610330906110ec565b80601f016020809104026020016040519081016040528092919081815260200182805461035c906110ec565b80156103a95780601f1061037e576101008083540402835291602001916103a9565b820191906000526020600020905b81548152906001019060200180831161038c57829003601f168201915b505050505081526020016003820180546103c2906110ec565b80601f01602080910402602001604051908101604052809291908181526020018280546103ee906110ec565b801561043b5780601f106104105761010080835404028352916020019161043b565b820191906000526020600020905b81548152906001019060200180831161041e57829003601f168201915b50505050508152602001600482018054610454906110ec565b80601f0160208091040260200160405190810160405280929190818152602001828054610480906110ec565b80156104cd5780601f106104a2576101008083540402835291602001916104cd565b820191906000526020600020905b8154815290600101906020018083116104b057829003601f168201915b505050505081526020016005820180546104e6906110ec565b80601f0160208091040260200160405190810160405280929190818152602001828054610512906110ec565b801561055f5780601f106105345761010080835404028352916020019161055f565b820191906000526020600020905b81548152906001019060200180831161054257829003601f168201915b50505050508152602001600682018054610578906110ec565b80601f01602080910402602001604051908101604052809291908181526020018280546105a4906110ec565b80156105f15780601f106105c6576101008083540402835291602001916105f1565b820191906000526020600020905b8154815290600101906020018083116105d457829003601f168201915b5050505050815260200160078201805461060a906110ec565b80601f0160208091040260200160405190810160405280929190818152602001828054610636906110ec565b80156106835780601f1061065857610100808354040283529160200191610683565b820191906000526020600020905b81548152906001019060200180831161066657829003601f168201915b5050505050815260200160088201805461069c906110ec565b80601f01602080910402602001604051908101604052809291908181526020018280546106c8906110ec565b80156107155780601f106106ea57610100808354040283529160200191610715565b820191906000526020600020905b8154815290600101906020018083116106f857829003601f168201915b50505050508152602001600982015481525050815260200190600101906102dc565b505050509050919050565b600034116107975760405162461bcd60e51b815260206004820152601f60248201527f616d6f756e742073686f756c642062652067726561746572207468616e20300060448201526064015b60405180910390fd5b600080546040516001600160a01b039091169034908381818185875af1925050503d80600081146107e4576040519150601f19603f3d011682016040523d82523d6000602084013e6107e9565b606091505b505090508061082d5760405162461bcd60e51b815260206004820152601060248201526f2a3930b739b332b9103330b4b632b21760811b604482015260640161078e565b50565b6001602052816000526040600020818154811061084c57600080fd5b60009182526020909120600a90910201805460018201546002830180549295506001600160a01b03909116935090610883906110ec565b80601f01602080910402602001604051908101604052809291908181526020018280546108af906110ec565b80156108fc5780601f106108d1576101008083540402835291602001916108fc565b820191906000526020600020905b8154815290600101906020018083116108df57829003601f168201915b505050505090806003018054610911906110ec565b80601f016020809104026020016040519081016040528092919081815260200182805461093d906110ec565b801561098a5780601f1061095f5761010080835404028352916020019161098a565b820191906000526020600020905b81548152906001019060200180831161096d57829003601f168201915b50505050509080600401805461099f906110ec565b80601f01602080910402602001604051908101604052809291908181526020018280546109cb906110ec565b8015610a185780601f106109ed57610100808354040283529160200191610a18565b820191906000526020600020905b8154815290600101906020018083116109fb57829003601f168201915b505050505090806005018054610a2d906110ec565b80601f0160208091040260200160405190810160405280929190818152602001828054610a59906110ec565b8015610aa65780601f10610a7b57610100808354040283529160200191610aa6565b820191906000526020600020905b815481529060010190602001808311610a8957829003601f168201915b505050505090806006018054610abb906110ec565b80601f0160208091040260200160405190810160405280929190818152602001828054610ae7906110ec565b8015610b345780601f10610b0957610100808354040283529160200191610b34565b820191906000526020600020905b815481529060010190602001808311610b1757829003601f168201915b505050505090806007018054610b49906110ec565b80601f0160208091040260200160405190810160405280929190818152602001828054610b75906110ec565b8015610bc25780601f10610b9757610100808354040283529160200191610bc2565b820191906000526020600020905b815481529060010190602001808311610ba557829003601f168201915b505050505090806008018054610bd7906110ec565b80601f0160208091040260200160405190810160405280929190818152602001828054610c03906110ec565b8015610c505780601f10610c2557610100808354040283529160200191610c50565b820191906000526020600020905b815481529060010190602001808311610c3357829003601f168201915b505050505090806009015490508a565b634e487b7160e01b600052604160045260246000fd5b600082601f830112610c8757600080fd5b813567ffffffffffffffff80821115610ca257610ca2610c60565b604051601f8301601f19908116603f01168101908282118183101715610cca57610cca610c60565b81604052838152866020858801011115610ce357600080fd5b836020870160208301376000602085830101528094505050505092915050565b600080600080600080600060e0888a031215610d1e57600080fd5b873567ffffffffffffffff80821115610d3657600080fd5b610d428b838c01610c76565b985060208a0135915080821115610d5857600080fd5b610d648b838c01610c76565b975060408a0135915080821115610d7a57600080fd5b610d868b838c01610c76565b965060608a0135915080821115610d9c57600080fd5b610da88b838c01610c76565b955060808a0135915080821115610dbe57600080fd5b610dca8b838c01610c76565b945060a08a0135915080821115610de057600080fd5b610dec8b838c01610c76565b935060c08a0135915080821115610e0257600080fd5b50610e0f8a828b01610c76565b91505092959891949750929550565b80356001600160a01b0381168114610e3557600080fd5b919050565b600060208284031215610e4c57600080fd5b610e5582610e1e565b9392505050565b6000815180845260005b81811015610e8257602081850181015186830182015201610e66565b506000602082860101526020601f19601f83011685010191505092915050565b60006020808301818452808551808352604092508286019150828160051b87010184880160005b83811015610fd057603f19898403018552815180518452878101516001600160a01b0316888501528681015161014088860181905290610f0b82870182610e5c565b91505060608083015186830382880152610f258382610e5c565b9250505060808083015186830382880152610f408382610e5c565b9250505060a08083015186830382880152610f5b8382610e5c565b9250505060c08083015186830382880152610f768382610e5c565b9250505060e08083015186830382880152610f918382610e5c565b925050506101008083015186830382880152610fad8382610e5c565b610120948501519790940196909652505094870194925090860190600101610ec9565b509098975050505050505050565b60008060408385031215610ff157600080fd5b610ffa83610e1e565b946020939093013593505050565b8a81526001600160a01b038a166020820152610140604082018190526000906110338382018c610e5c565b90508281036060840152611047818b610e5c565b9050828103608084015261105b818a610e5c565b905082810360a084015261106f8189610e5c565b905082810360c08401526110838188610e5c565b905082810360e08401526110978187610e5c565b90508281036101008401526110ac8186610e5c565b915050826101208301529b9a5050505050505050505050565b6000600182016110e557634e487b7160e01b600052601160045260246000fd5b5060010190565b600181811c9082168061110057607f821691505b60208210810361112057634e487b7160e01b600052602260045260246000fd5b50919050565b601f82111561117057600081815260208120601f850160051c8101602086101561114d5750805b601f850160051c820191505b8181101561116c57828155600101611159565b5050505b505050565b815167ffffffffffffffff81111561118f5761118f610c60565b6111a38161119d84546110ec565b84611126565b602080601f8311600181146111d857600084156111c05750858301515b600019600386901b1c1916600185901b17855561116c565b600085815260208120601f198616915b82811015611207578886015182559484019460019091019084016111e8565b50858210156112255787850151600019600388901b60f8161c191681555b5050505050600190811b0190555056fea2646970667358221220b4ca77e984ac18fe4706d29e26c375d63f6393c3d7b3df4d0de51303293fcc5164736f6c63430008110033",
  "devdoc": {
    "kind": "dev",
    "methods": {},
    "version": 1
  },
  "userdoc": {
    "kind": "user",
    "methods": {},
    "version": 1
  },
  "storageLayout": {
    "storage": [
      {
        "astId": 24,
        "contract": "contracts/Liquidity.sol:Liquidity",
        "label": "admin",
        "offset": 0,
        "slot": "0",
        "type": "t_address"
      },
      {
        "astId": 30,
        "contract": "contracts/Liquidity.sol:Liquidity",
        "label": "liquidities",
        "offset": 0,
        "slot": "1",
        "type": "t_mapping(t_address,t_array(t_struct(LiquidityInfo)22_storage)dyn_storage)"
      },
      {
        "astId": 32,
        "contract": "contracts/Liquidity.sol:Liquidity",
        "label": "liquidityId",
        "offset": 0,
        "slot": "2",
        "type": "t_uint256"
      }
    ],
    "types": {
      "t_address": {
        "encoding": "inplace",
        "label": "address",
        "numberOfBytes": "20"
      },
      "t_array(t_struct(LiquidityInfo)22_storage)dyn_storage": {
        "base": "t_struct(LiquidityInfo)22_storage",
        "encoding": "dynamic_array",
        "label": "struct Liquidity.LiquidityInfo[]",
        "numberOfBytes": "32"
      },
      "t_mapping(t_address,t_array(t_struct(LiquidityInfo)22_storage)dyn_storage)": {
        "encoding": "mapping",
        "key": "t_address",
        "label": "mapping(address => struct Liquidity.LiquidityInfo[])",
        "numberOfBytes": "32",
        "value": "t_array(t_struct(LiquidityInfo)22_storage)dyn_storage"
      },
      "t_string_storage": {
        "encoding": "bytes",
        "label": "string",
        "numberOfBytes": "32"
      },
      "t_struct(LiquidityInfo)22_storage": {
        "encoding": "inplace",
        "label": "struct Liquidity.LiquidityInfo",
        "members": [
          {
            "astId": 3,
            "contract": "contracts/Liquidity.sol:Liquidity",
            "label": "id",
            "offset": 0,
            "slot": "0",
            "type": "t_uint256"
          },
          {
            "astId": 5,
            "contract": "contracts/Liquidity.sol:Liquidity",
            "label": "owner",
            "offset": 0,
            "slot": "1",
            "type": "t_address"
          },
          {
            "astId": 7,
            "contract": "contracts/Liquidity.sol:Liquidity",
            "label": "tokenA",
            "offset": 0,
            "slot": "2",
            "type": "t_string_storage"
          },
          {
            "astId": 9,
            "contract": "contracts/Liquidity.sol:Liquidity",
            "label": "tokenB",
            "offset": 0,
            "slot": "3",
            "type": "t_string_storage"
          },
          {
            "astId": 11,
            "contract": "contracts/Liquidity.sol:Liquidity",
            "label": "tokenA_Address",
            "offset": 0,
            "slot": "4",
            "type": "t_string_storage"
          },
          {
            "astId": 13,
            "contract": "contracts/Liquidity.sol:Liquidity",
            "label": "tokenB_Address",
            "offset": 0,
            "slot": "5",
            "type": "t_string_storage"
          },
          {
            "astId": 15,
            "contract": "contracts/Liquidity.sol:Liquidity",
            "label": "poolAddress",
            "offset": 0,
            "slot": "6",
            "type": "t_string_storage"
          },
          {
            "astId": 17,
            "contract": "contracts/Liquidity.sol:Liquidity",
            "label": "network",
            "offset": 0,
            "slot": "7",
            "type": "t_string_storage"
          },
          {
            "astId": 19,
            "contract": "contracts/Liquidity.sol:Liquidity",
            "label": "transactionHash",
            "offset": 0,
            "slot": "8",
            "type": "t_string_storage"
          },
          {
            "astId": 21,
            "contract": "contracts/Liquidity.sol:Liquidity",
            "label": "timeCreated",
            "offset": 0,
            "slot": "9",
            "type": "t_uint256"
          }
        ],
        "numberOfBytes": "320"
      },
      "t_uint256": {
        "encoding": "inplace",
        "label": "uint256",
        "numberOfBytes": "32"
      }
    }
  }
}