{
  "address": "0x6cc9bF8De95641eAffAd8D7cC8450877123D91e7",
  "abi": [
    {
      "inputs": [
        {
          "internalType": "uint256",
          "name": "_initialSupply",
          "type": "uint256"
        }
      ],
      "stateMutability": "nonpayable",
      "type": "constructor"
    },
    {
      "anonymous": false,
      "inputs": [
        {
          "indexed": true,
          "internalType": "address",
          "name": "_owner",
          "type": "address"
        },
        {
          "indexed": true,
          "internalType": "address",
          "name": "_spender",
          "type": "address"
        },
        {
          "indexed": false,
          "internalType": "uint256",
          "name": "_value",
          "type": "uint256"
        }
      ],
      "name": "Approval",
      "type": "event"
    },
    {
      "anonymous": false,
      "inputs": [
        {
          "indexed": true,
          "internalType": "address",
          "name": "_from",
          "type": "address"
        },
        {
          "indexed": true,
          "internalType": "address",
          "name": "_to",
          "type": "address"
        },
        {
          "indexed": false,
          "internalType": "uint256",
          "name": "_value",
          "type": "uint256"
        }
      ],
      "name": "Transfer",
      "type": "event"
    },
    {
      "inputs": [],
      "name": "_userId",
      "outputs": [
        {
          "internalType": "uint256",
          "name": "",
          "type": "uint256"
        }
      ],
      "stateMutability": "view",
      "type": "function"
    },
    {
      "inputs": [
        {
          "internalType": "address",
          "name": "",
          "type": "address"
        },
        {
          "internalType": "address",
          "name": "",
          "type": "address"
        }
      ],
      "name": "allowance",
      "outputs": [
        {
          "internalType": "uint256",
          "name": "",
          "type": "uint256"
        }
      ],
      "stateMutability": "view",
      "type": "function"
    },
    {
      "inputs": [
        {
          "internalType": "address",
          "name": "_spender",
          "type": "address"
        },
        {
          "internalType": "uint256",
          "name": "_value",
          "type": "uint256"
        }
      ],
      "name": "approve",
      "outputs": [
        {
          "internalType": "bool",
          "name": "success",
          "type": "bool"
        }
      ],
      "stateMutability": "nonpayable",
      "type": "function"
    },
    {
      "inputs": [
        {
          "internalType": "address",
          "name": "",
          "type": "address"
        }
      ],
      "name": "balanceOf",
      "outputs": [
        {
          "internalType": "uint256",
          "name": "",
          "type": "uint256"
        }
      ],
      "stateMutability": "view",
      "type": "function"
    },
    {
      "inputs": [],
      "name": "getTokenHolder",
      "outputs": [
        {
          "internalType": "address[]",
          "name": "",
          "type": "address[]"
        }
      ],
      "stateMutability": "view",
      "type": "function"
    },
    {
      "inputs": [
        {
          "internalType": "address",
          "name": "_holder",
          "type": "address"
        }
      ],
      "name": "getTokenHolderData",
      "outputs": [
        {
          "components": [
            {
              "internalType": "uint256",
              "name": "_tokenId",
              "type": "uint256"
            },
            {
              "internalType": "address",
              "name": "_from",
              "type": "address"
            },
            {
              "internalType": "address",
              "name": "_to",
              "type": "address"
            },
            {
              "internalType": "uint256",
              "name": "_totalToken",
              "type": "uint256"
            },
            {
              "internalType": "bool",
              "name": "_tokenHolder",
              "type": "bool"
            }
          ],
          "internalType": "struct Scaffold.TokenHolderInfo",
          "name": "",
          "type": "tuple"
        }
      ],
      "stateMutability": "view",
      "type": "function"
    },
    {
      "inputs": [
        {
          "internalType": "uint256",
          "name": "",
          "type": "uint256"
        }
      ],
      "name": "holderToken",
      "outputs": [
        {
          "internalType": "address",
          "name": "",
          "type": "address"
        }
      ],
      "stateMutability": "view",
      "type": "function"
    },
    {
      "inputs": [],
      "name": "name",
      "outputs": [
        {
          "internalType": "string",
          "name": "",
          "type": "string"
        }
      ],
      "stateMutability": "view",
      "type": "function"
    },
    {
      "inputs": [],
      "name": "ownerOfContract",
      "outputs": [
        {
          "internalType": "address",
          "name": "",
          "type": "address"
        }
      ],
      "stateMutability": "view",
      "type": "function"
    },
    {
      "inputs": [],
      "name": "standard",
      "outputs": [
        {
          "internalType": "string",
          "name": "",
          "type": "string"
        }
      ],
      "stateMutability": "view",
      "type": "function"
    },
    {
      "inputs": [],
      "name": "symbol",
      "outputs": [
        {
          "internalType": "string",
          "name": "",
          "type": "string"
        }
      ],
      "stateMutability": "view",
      "type": "function"
    },
    {
      "inputs": [
        {
          "internalType": "address",
          "name": "",
          "type": "address"
        }
      ],
      "name": "tokenHolderInfos",
      "outputs": [
        {
          "internalType": "uint256",
          "name": "_tokenId",
          "type": "uint256"
        },
        {
          "internalType": "address",
          "name": "_from",
          "type": "address"
        },
        {
          "internalType": "address",
          "name": "_to",
          "type": "address"
        },
        {
          "internalType": "uint256",
          "name": "_totalToken",
          "type": "uint256"
        },
        {
          "internalType": "bool",
          "name": "_tokenHolder",
          "type": "bool"
        }
      ],
      "stateMutability": "view",
      "type": "function"
    },
    {
      "inputs": [],
      "name": "totalSupply",
      "outputs": [
        {
          "internalType": "uint256",
          "name": "",
          "type": "uint256"
        }
      ],
      "stateMutability": "view",
      "type": "function"
    },
    {
      "inputs": [
        {
          "internalType": "address",
          "name": "_to",
          "type": "address"
        },
        {
          "internalType": "uint256",
          "name": "_value",
          "type": "uint256"
        }
      ],
      "name": "transfer",
      "outputs": [
        {
          "internalType": "bool",
          "name": "success",
          "type": "bool"
        }
      ],
      "stateMutability": "nonpayable",
      "type": "function"
    },
    {
      "inputs": [
        {
          "internalType": "address",
          "name": "_from",
          "type": "address"
        },
        {
          "internalType": "address",
          "name": "_to",
          "type": "address"
        },
        {
          "internalType": "uint256",
          "name": "_value",
          "type": "uint256"
        }
      ],
      "name": "transferFrom",
      "outputs": [
        {
          "internalType": "bool",
          "name": "success",
          "type": "bool"
        }
      ],
      "stateMutability": "nonpayable",
      "type": "function"
    }
  ],
  "transactionHash": "0x9ece4001d0fe7221343b8014938814c38afcaeef14c5bdf9000a8ffd1812d2b1",
  "args": [
    "50000000000000000000000000000"
  ],
  "numDeployments": 2,
  "solcInputHash": "4445472b83a3bfabc29a6ba4b4d85ac4",
  "bytecode": "0x60c0604052600860809081526714d8d859999bdb1960c21b60a0526000906200002990826200018d565b5060408051808201909152600381526214d19160ea1b60208201526001906200005390826200018d565b5060408051808201909152600e81526d53636166666f6c6420762e302e3160901b60208201526002906200008890826200018d565b503480156200009657600080fd5b5060405162000d8b38038062000d8b833981016040819052620000b99162000259565b600480546001600160a01b03191633908117909155600090815260086020526040902081905560035562000273565b634e487b7160e01b600052604160045260246000fd5b600181811c908216806200011357607f821691505b6020821081036200013457634e487b7160e01b600052602260045260246000fd5b50919050565b601f8211156200018857600081815260208120601f850160051c81016020861015620001635750805b601f850160051c820191505b8181101562000184578281556001016200016f565b5050505b505050565b81516001600160401b03811115620001a957620001a9620000e8565b620001c181620001ba8454620000fe565b846200013a565b602080601f831160018114620001f95760008415620001e05750858301515b600019600386901b1c1916600185901b17855562000184565b600085815260208120601f198616915b828110156200022a5788860151825594840194600190910190840162000209565b5085821015620002495787850151600019600388901b60f8161c191681555b5050505050600190811b01905550565b6000602082840312156200026c57600080fd5b5051919050565b610b0880620002836000396000f3fe608060405234801561001057600080fd5b50600436106100f55760003560e01c806370a0823111610097578063a9059cbb11610066578063a9059cbb1461033f578063ba8e355714610352578063bc4530e714610367578063dd62ed3e1461037057600080fd5b806370a082311461021a578063760b06c51461023a57806382b682631461024d57806395d89b411461033757600080fd5b806323b872dd116100d357806323b872dd1461015257806329cc66ed14610165578063468229ae146101e75780635a3b7e421461021257600080fd5b806306fdde03146100fa578063095ea7b31461011857806318160ddd1461013b575b600080fd5b61010261039b565b60405161010f91906108b8565b60405180910390f35b61012b610126366004610922565b610429565b604051901515815260200161010f565b61014460035481565b60405190815260200161010f565b61012b61016036600461094c565b610496565b6101b1610173366004610988565b6007602052600090815260409020805460018201546002830154600384015460049094015492936001600160a01b0392831693929091169160ff1685565b604080519586526001600160a01b039485166020870152929093169184019190915260608301521515608082015260a00161010f565b6004546101fa906001600160a01b031681565b6040516001600160a01b03909116815260200161010f565b610102610671565b610144610228366004610988565b60086020526000908152604090205481565b6101fa6102483660046109aa565b61067e565b6102ea61025b366004610988565b6040805160a081018252600080825260208201819052918101829052606081018290526080810191909152506001600160a01b03908116600090815260076020908152604091829020825160a0810184528154815260018201548516928101929092526002810154909316918101919091526003820154606082015260049091015460ff161515608082015290565b60408051825181526020808401516001600160a01b03908116918301919091528383015116918101919091526060808301519082015260809182015115159181019190915260a00161010f565b6101026106a8565b61012b61034d366004610922565b6106b5565b61035a61083f565b60405161010f91906109c3565b61014460055481565b61014461037e366004610a10565b600960209081526000928352604080842090915290825290205481565b600080546103a890610a43565b80601f01602080910402602001604051908101604052809291908181526020018280546103d490610a43565b80156104215780601f106103f657610100808354040283529160200191610421565b820191906000526020600020905b81548152906001019060200180831161040457829003601f168201915b505050505081565b3360008181526009602090815260408083206001600160a01b038716808552925280832085905551919290917f8c5be1e5ebec7d5bd14f71427d1e84f3dd0314c0f7b2291e5b200ac8c7c3b925906104849086815260200190565b60405180910390a35060015b92915050565b6001600160a01b0383166000908152600860205260408120548211156105035760405162461bcd60e51b815260206004820152601f60248201527f76616c7565206d757374206265206c657373207468616e2062616c616e63650060448201526064015b60405180910390fd5b6001600160a01b03841660009081526009602090815260408083203384529091529020548211156105865760405162461bcd60e51b815260206004820152602760248201527f76616c7565206d757374206265206c657373207468616e20616c6c6f7765642060448201526662616c616e636560c81b60648201526084016104fa565b6001600160a01b038416600090815260086020526040812080548492906105ae908490610a93565b90915550506001600160a01b038316600090815260086020526040812080548492906105db908490610aa6565b90915550506001600160a01b038416600090815260096020908152604080832033845290915281208054849290610613908490610a93565b92505081905550826001600160a01b0316846001600160a01b03167fddf252ad1be2c89b69c2b068fc378daa952ba7f163c4a11628f55a4df523b3ef8460405161065f91815260200190565b60405180910390a35060019392505050565b600280546103a890610a43565b6006818154811061068e57600080fd5b6000918252602090912001546001600160a01b0316905081565b600180546103a890610a43565b336000908152600860205260408120548211156107145760405162461bcd60e51b815260206004820152601f60248201527f76616c7565206d757374206265206c657373207468616e2062616c616e63650060448201526064016104fa565b61071c6108a1565b336000908152600860205260408120805484929061073b908490610a93565b90915550506001600160a01b03831660009081526008602052604081208054849290610768908490610aa6565b90915550506001600160a01b038316600081815260076020908152604080832060018082018054336001600160a01b03199182168117909255600284018054821689179055600384018a905560048401805460ff19168417905560055484556006805493840181559096527ff652222313e28459528d920b65115c16c04f3efc82aaedc97be59f3f377c0d3f909101805490951686179094559051868152909392917fddf252ad1be2c89b69c2b068fc378daa952ba7f163c4a11628f55a4df523b3ef910160405180910390a35060019392505050565b6060600680548060200260200160405190810160405280929190818152602001828054801561089757602002820191906000526020600020905b81546001600160a01b03168152600190910190602001808311610879575b5050505050905090565b600580549060006108b183610ab9565b9190505550565b600060208083528351808285015260005b818110156108e5578581018301518582016040015282016108c9565b506000604082860101526040601f19601f8301168501019250505092915050565b80356001600160a01b038116811461091d57600080fd5b919050565b6000806040838503121561093557600080fd5b61093e83610906565b946020939093013593505050565b60008060006060848603121561096157600080fd5b61096a84610906565b925061097860208501610906565b9150604084013590509250925092565b60006020828403121561099a57600080fd5b6109a382610906565b9392505050565b6000602082840312156109bc57600080fd5b5035919050565b6020808252825182820181905260009190848201906040850190845b81811015610a045783516001600160a01b0316835292840192918401916001016109df565b50909695505050505050565b60008060408385031215610a2357600080fd5b610a2c83610906565b9150610a3a60208401610906565b90509250929050565b600181811c90821680610a5757607f821691505b602082108103610a7757634e487b7160e01b600052602260045260246000fd5b50919050565b634e487b7160e01b600052601160045260246000fd5b8181038181111561049057610490610a7d565b8082018082111561049057610490610a7d565b600060018201610acb57610acb610a7d565b506001019056fea2646970667358221220263ee0c8b5102eab94ebb7935f9f3e3bfceb25da734872ebdb3850e0f688335364736f6c63430008110033",
  "devdoc": {
    "kind": "dev",
    "methods": {},
    "version": 1
  },
  "userdoc": {
    "kind": "user",
    "methods": {},
    "version": 1
  },
  "storageLayout": {
    "storage": [
      {
        "astId": 159,
        "contract": "contracts/Scaffold.sol:Scaffold",
        "label": "name",
        "offset": 0,
        "slot": "0",
        "type": "t_string_storage"
      },
      {
        "astId": 162,
        "contract": "contracts/Scaffold.sol:Scaffold",
        "label": "symbol",
        "offset": 0,
        "slot": "1",
        "type": "t_string_storage"
      },
      {
        "astId": 165,
        "contract": "contracts/Scaffold.sol:Scaffold",
        "label": "standard",
        "offset": 0,
        "slot": "2",
        "type": "t_string_storage"
      },
      {
        "astId": 167,
        "contract": "contracts/Scaffold.sol:Scaffold",
        "label": "totalSupply",
        "offset": 0,
        "slot": "3",
        "type": "t_uint256"
      },
      {
        "astId": 169,
        "contract": "contracts/Scaffold.sol:Scaffold",
        "label": "ownerOfContract",
        "offset": 0,
        "slot": "4",
        "type": "t_address"
      },
      {
        "astId": 171,
        "contract": "contracts/Scaffold.sol:Scaffold",
        "label": "_userId",
        "offset": 0,
        "slot": "5",
        "type": "t_uint256"
      },
      {
        "astId": 174,
        "contract": "contracts/Scaffold.sol:Scaffold",
        "label": "holderToken",
        "offset": 0,
        "slot": "6",
        "type": "t_array(t_address)dyn_storage"
      },
      {
        "astId": 195,
        "contract": "contracts/Scaffold.sol:Scaffold",
        "label": "tokenHolderInfos",
        "offset": 0,
        "slot": "7",
        "type": "t_mapping(t_address,t_struct(TokenHolderInfo)206_storage)"
      },
      {
        "astId": 210,
        "contract": "contracts/Scaffold.sol:Scaffold",
        "label": "balanceOf",
        "offset": 0,
        "slot": "8",
        "type": "t_mapping(t_address,t_uint256)"
      },
      {
        "astId": 216,
        "contract": "contracts/Scaffold.sol:Scaffold",
        "label": "allowance",
        "offset": 0,
        "slot": "9",
        "type": "t_mapping(t_address,t_mapping(t_address,t_uint256))"
      }
    ],
    "types": {
      "t_address": {
        "encoding": "inplace",
        "label": "address",
        "numberOfBytes": "20"
      },
      "t_array(t_address)dyn_storage": {
        "base": "t_address",
        "encoding": "dynamic_array",
        "label": "address[]",
        "numberOfBytes": "32"
      },
      "t_bool": {
        "encoding": "inplace",
        "label": "bool",
        "numberOfBytes": "1"
      },
      "t_mapping(t_address,t_mapping(t_address,t_uint256))": {
        "encoding": "mapping",
        "key": "t_address",
        "label": "mapping(address => mapping(address => uint256))",
        "numberOfBytes": "32",
        "value": "t_mapping(t_address,t_uint256)"
      },
      "t_mapping(t_address,t_struct(TokenHolderInfo)206_storage)": {
        "encoding": "mapping",
        "key": "t_address",
        "label": "mapping(address => struct Scaffold.TokenHolderInfo)",
        "numberOfBytes": "32",
        "value": "t_struct(TokenHolderInfo)206_storage"
      },
      "t_mapping(t_address,t_uint256)": {
        "encoding": "mapping",
        "key": "t_address",
        "label": "mapping(address => uint256)",
        "numberOfBytes": "32",
        "value": "t_uint256"
      },
      "t_string_storage": {
        "encoding": "bytes",
        "label": "string",
        "numberOfBytes": "32"
      },
      "t_struct(TokenHolderInfo)206_storage": {
        "encoding": "inplace",
        "label": "struct Scaffold.TokenHolderInfo",
        "members": [
          {
            "astId": 197,
            "contract": "contracts/Scaffold.sol:Scaffold",
            "label": "_tokenId",
            "offset": 0,
            "slot": "0",
            "type": "t_uint256"
          },
          {
            "astId": 199,
            "contract": "contracts/Scaffold.sol:Scaffold",
            "label": "_from",
            "offset": 0,
            "slot": "1",
            "type": "t_address"
          },
          {
            "astId": 201,
            "contract": "contracts/Scaffold.sol:Scaffold",
            "label": "_to",
            "offset": 0,
            "slot": "2",
            "type": "t_address"
          },
          {
            "astId": 203,
            "contract": "contracts/Scaffold.sol:Scaffold",
            "label": "_totalToken",
            "offset": 0,
            "slot": "3",
            "type": "t_uint256"
          },
          {
            "astId": 205,
            "contract": "contracts/Scaffold.sol:Scaffold",
            "label": "_tokenHolder",
            "offset": 0,
            "slot": "4",
            "type": "t_bool"
          }
        ],
        "numberOfBytes": "160"
      },
      "t_uint256": {
        "encoding": "inplace",
        "label": "uint256",
        "numberOfBytes": "32"
      }
    }
  }
}